:1000000020C09CC19BC19AC199C198C197C196C19A
:10001000F6C094C193C192C191C190C18FC18EC1EC
:100020008DC18CC18BC18AC189C188C187C186C17C
:1000300085C184C183C182C181C18EC00100010616
:10004000800011241FBECFEFD1E0DEBFCDBFECE3B7
:10005000F0E040E017C0B591A5913591259105914B
:1000600007FD0CC095918591EF01F92FE82F0590C0
:100070000D92A217B307D9F7FE0104C01D92A21773
:10008000B307E1F7E134F40731F703D000C0F89487
:02009000FFCFA0
:1000920088ED809371001092730015BE87B3887F3C
:1000A20087BBE2E6F0E08081876080838AB3867551
:1000B2008ABBC3E6D0E08881896A88838AE3809319
:1000C2007000DDD08AB38F7A8ABB88818F7A888369
:1000D20002D12BD17894809103018130F1F41092F6
:1000E200030113D181E0AED09695879596958795B9
:1000F200CFE7C81B82E0A6D09695879596958795FF
:100102008058C093010180930201FBD085B78062C1
:1001120085BF889585B78F7D85BF80910501813028
:1001220061F410920501E7D003D185B7806285BFE3
:10013200889585B78F7D85BFCECF809104018130B0
:1001420051F61092040185B7806285BF889585B704
:060152008F7D85BFC0CFC8
:100158001F920F920FB60F9211242F933F934F9334
:100168005F936F937F938F939F93AF93BF93EF9317
:10017800FF938091A300882394F48091A30081FFCA
:1001880007C091D08093A00083E08093A40022C090
:1001980083E08093A4008091A000A4D01BC086FFB8
:1001A80019C08091A30083FF08C0E3EAF0E08081D2
:1001B800808382E08093A4000DC08091A30080FF1B
:1001C80005C083E08093A400A5D004C082E080939A
:1001D800A4009CD0FF91EF91BF91AF919F918F9117
:1001E8007F916F915F914F913F912F910F900FBE2B
:0601F8000F901F90189506
:1001FE001F920F920FB60F9211242F933F934F938E
:10020E005F936F937F938F939F93AF93BF93EF9370
:10021E00FF938BD080D0FF91EF91BF91AF919F91C3
:10022E008F917F916F915F914F913F912F910F9091
:08023E000FBE0F901F901895F0
:100246008823C1F099B119B849B190E0019721E02E
:1002560030E0B90102C0660F771F8A95E2F7CB013D
:10026600842B89B985B1806485B92E99FECF86B174
:0A02760097B1089580E090E008952C
:100280008AB3897F8ABB8BB3897F8BBB89B181603D
:1002900089B988B118B885B1806885B985B184609D
:0E02A00085B9E0E6F0E08081866080830895F5
:1002AE0080910001803131F0813139F08F3041F48D
:1002BE0081EF07C08091010104C08091020101C04D
:0A02CE0080E091E090930401089590
:1002D80082E88093A2008FEF8093A0008CEB80933C
:0402E800A5000895D0
:0C02EC008093000181E0809304010895DC
:0C02F8008BE69EEE9DBD8CBD81E008955C
:0803040085B18F7785B90895DA
:08030C0085B1806885B90895F0
:0803140081E0809305010895CA
:08031C0081E0809304010895C3
:0803240081E0809303010895BC
:06032C0081E08FB9089585
:0603320082E08EBD08957B
:040338001EBC08954A
:02033C0061CE90
:00000001FF
